{
	"data": {
		"bytecode": {
			"linkReferences": {},
			"object": "6080604052348015600e575f80fd5b50600160025f6101000a81548160ff0219169083151502179055506104ec806100365f395ff3fe608060405234801561000f575f80fd5b506004361061007b575f3560e01c80639ddfdf81116100595780639ddfdf81146100c5578063aae3bd47146100e3578063cf567c8c146100ed578063d10e0d90146100f75761007b565b80632bef70ca1461007f578063408e2727146100895780638e7ea5b2146100a7575b5f80fd5b610087610115565b005b61009161017d565b60405161009e9190610314565b60405180910390f35b6100af61018f565b6040516100bc919061039d565b60405180910390f35b6100cd61025d565b6040516100da91906103d5565b60405180910390f35b6100eb610262565b005b6100f561028c565b005b6100ff6102f4565b60405161010c91906103d5565b60405180910390f35b60025f9054906101000a900460ff16610163576040517f08c379a000000000000000000000000000000000000000000000000000000000815260040161015a90610438565b60405180910390fd5b6001805f8282546101749190610483565b92505081905550565b60025f9054906101000a900460ff1681565b60606001545f5411156101d9576040518060400160405280601781526020017f4368696368696b6f206973207468652077696e6e657221000000000000000000815250905061025a565b5f546001541115610221576040518060400160405280601681526020017f42696368696b6f206973207468652077696e6e65722100000000000000000000815250905061025a565b6040518060400160405280600b81526020017f497427732061207469652100000000000000000000000000000000000000000081525090505b90565b5f5481565b60025f9054906101000a900460ff161560025f6101000a81548160ff021916908315150217905550565b60025f9054906101000a900460ff166102da576040517f08c379a00000000000000000000000000000000000000000000000000000000081526004016102d190610438565b60405180910390fd5b60015f808282546102eb9190610483565b92505081905550565b60015481565b5f8115159050919050565b61030e816102fa565b82525050565b5f6020820190506103275f830184610305565b92915050565b5f81519050919050565b5f82825260208201905092915050565b8281835e5f83830152505050565b5f601f19601f8301169050919050565b5f61036f8261032d565b6103798185610337565b9350610389818560208601610347565b61039281610355565b840191505092915050565b5f6020820190508181035f8301526103b58184610365565b905092915050565b5f819050919050565b6103cf816103bd565b82525050565b5f6020820190506103e85f8301846103c6565b92915050565b7f566f74696e67206973206e6f74206163746976650000000000000000000000005f82015250565b5f610422601483610337565b915061042d826103ee565b602082019050919050565b5f6020820190508181035f83015261044f81610416565b9050919050565b7f4e487b71000000000000000000000000000000000000000000000000000000005f52601160045260245ffd5b5f61048d826103bd565b9150610498836103bd565b92508282019050808211156104b0576104af610456565b5b9291505056fea2646970667358221220214af2727e345f145bbed368d3b05e0d8a90b8383b87bb5197f9a5367ff8a52c64736f6c634300081a0033",
			"opcodes": "PUSH1 0x80 PUSH1 0x40 MSTORE CALLVALUE DUP1 ISZERO PUSH1 0xE JUMPI PUSH0 DUP1 REVERT JUMPDEST POP PUSH1 0x1 PUSH1 0x2 PUSH0 PUSH2 0x100 EXP DUP2 SLOAD DUP2 PUSH1 0xFF MUL NOT AND SWAP1 DUP4 ISZERO ISZERO MUL OR SWAP1 SSTORE POP PUSH2 0x4EC DUP1 PUSH2 0x36 PUSH0 CODECOPY PUSH0 RETURN INVALID PUSH1 0x80 PUSH1 0x40 MSTORE CALLVALUE DUP1 ISZERO PUSH2 0xF JUMPI PUSH0 DUP1 REVERT JUMPDEST POP PUSH1 0x4 CALLDATASIZE LT PUSH2 0x7B JUMPI PUSH0 CALLDATALOAD PUSH1 0xE0 SHR DUP1 PUSH4 0x9DDFDF81 GT PUSH2 0x59 JUMPI DUP1 PUSH4 0x9DDFDF81 EQ PUSH2 0xC5 JUMPI DUP1 PUSH4 0xAAE3BD47 EQ PUSH2 0xE3 JUMPI DUP1 PUSH4 0xCF567C8C EQ PUSH2 0xED JUMPI DUP1 PUSH4 0xD10E0D90 EQ PUSH2 0xF7 JUMPI PUSH2 0x7B JUMP JUMPDEST DUP1 PUSH4 0x2BEF70CA EQ PUSH2 0x7F JUMPI DUP1 PUSH4 0x408E2727 EQ PUSH2 0x89 JUMPI DUP1 PUSH4 0x8E7EA5B2 EQ PUSH2 0xA7 JUMPI JUMPDEST PUSH0 DUP1 REVERT JUMPDEST PUSH2 0x87 PUSH2 0x115 JUMP JUMPDEST STOP JUMPDEST PUSH2 0x91 PUSH2 0x17D JUMP JUMPDEST PUSH1 0x40 MLOAD PUSH2 0x9E SWAP2 SWAP1 PUSH2 0x314 JUMP JUMPDEST PUSH1 0x40 MLOAD DUP1 SWAP2 SUB SWAP1 RETURN JUMPDEST PUSH2 0xAF PUSH2 0x18F JUMP JUMPDEST PUSH1 0x40 MLOAD PUSH2 0xBC SWAP2 SWAP1 PUSH2 0x39D JUMP JUMPDEST PUSH1 0x40 MLOAD DUP1 SWAP2 SUB SWAP1 RETURN JUMPDEST PUSH2 0xCD PUSH2 0x25D JUMP JUMPDEST PUSH1 0x40 MLOAD PUSH2 0xDA SWAP2 SWAP1 PUSH2 0x3D5 JUMP JUMPDEST PUSH1 0x40 MLOAD DUP1 SWAP2 SUB SWAP1 RETURN JUMPDEST PUSH2 0xEB PUSH2 0x262 JUMP JUMPDEST STOP JUMPDEST PUSH2 0xF5 PUSH2 0x28C JUMP JUMPDEST STOP JUMPDEST PUSH2 0xFF PUSH2 0x2F4 JUMP JUMPDEST PUSH1 0x40 MLOAD PUSH2 0x10C SWAP2 SWAP1 PUSH2 0x3D5 JUMP JUMPDEST PUSH1 0x40 MLOAD DUP1 SWAP2 SUB SWAP1 RETURN JUMPDEST PUSH1 0x2 PUSH0 SWAP1 SLOAD SWAP1 PUSH2 0x100 EXP SWAP1 DIV PUSH1 0xFF AND PUSH2 0x163 JUMPI PUSH1 0x40 MLOAD PUSH32 0x8C379A000000000000000000000000000000000000000000000000000000000 DUP2 MSTORE PUSH1 0x4 ADD PUSH2 0x15A SWAP1 PUSH2 0x438 JUMP JUMPDEST PUSH1 0x40 MLOAD DUP1 SWAP2 SUB SWAP1 REVERT JUMPDEST PUSH1 0x1 DUP1 PUSH0 DUP3 DUP3 SLOAD PUSH2 0x174 SWAP2 SWAP1 PUSH2 0x483 JUMP JUMPDEST SWAP3 POP POP DUP2 SWAP1 SSTORE POP JUMP JUMPDEST PUSH1 0x2 PUSH0 SWAP1 SLOAD SWAP1 PUSH2 0x100 EXP SWAP1 DIV PUSH1 0xFF AND DUP2 JUMP JUMPDEST PUSH1 0x60 PUSH1 0x1 SLOAD PUSH0 SLOAD GT ISZERO PUSH2 0x1D9 JUMPI PUSH1 0x40 MLOAD DUP1 PUSH1 0x40 ADD PUSH1 0x40 MSTORE DUP1 PUSH1 0x17 DUP2 MSTORE PUSH1 0x20 ADD PUSH32 0x4368696368696B6F206973207468652077696E6E657221000000000000000000 DUP2 MSTORE POP SWAP1 POP PUSH2 0x25A JUMP JUMPDEST PUSH0 SLOAD PUSH1 0x1 SLOAD GT ISZERO PUSH2 0x221 JUMPI PUSH1 0x40 MLOAD DUP1 PUSH1 0x40 ADD PUSH1 0x40 MSTORE DUP1 PUSH1 0x16 DUP2 MSTORE PUSH1 0x20 ADD PUSH32 0x42696368696B6F206973207468652077696E6E65722100000000000000000000 DUP2 MSTORE POP SWAP1 POP PUSH2 0x25A JUMP JUMPDEST PUSH1 0x40 MLOAD DUP1 PUSH1 0x40 ADD PUSH1 0x40 MSTORE DUP1 PUSH1 0xB DUP2 MSTORE PUSH1 0x20 ADD PUSH32 0x4974277320612074696521000000000000000000000000000000000000000000 DUP2 MSTORE POP SWAP1 POP JUMPDEST SWAP1 JUMP JUMPDEST PUSH0 SLOAD DUP2 JUMP JUMPDEST PUSH1 0x2 PUSH0 SWAP1 SLOAD SWAP1 PUSH2 0x100 EXP SWAP1 DIV PUSH1 0xFF AND ISZERO PUSH1 0x2 PUSH0 PUSH2 0x100 EXP DUP2 SLOAD DUP2 PUSH1 0xFF MUL NOT AND SWAP1 DUP4 ISZERO ISZERO MUL OR SWAP1 SSTORE POP JUMP JUMPDEST PUSH1 0x2 PUSH0 SWAP1 SLOAD SWAP1 PUSH2 0x100 EXP SWAP1 DIV PUSH1 0xFF AND PUSH2 0x2DA JUMPI PUSH1 0x40 MLOAD PUSH32 0x8C379A000000000000000000000000000000000000000000000000000000000 DUP2 MSTORE PUSH1 0x4 ADD PUSH2 0x2D1 SWAP1 PUSH2 0x438 JUMP JUMPDEST PUSH1 0x40 MLOAD DUP1 SWAP2 SUB SWAP1 REVERT JUMPDEST PUSH1 0x1 PUSH0 DUP1 DUP3 DUP3 SLOAD PUSH2 0x2EB SWAP2 SWAP1 PUSH2 0x483 JUMP JUMPDEST SWAP3 POP POP DUP2 SWAP1 SSTORE POP JUMP JUMPDEST PUSH1 0x1 SLOAD DUP2 JUMP JUMPDEST PUSH0 DUP2 ISZERO ISZERO SWAP1 POP SWAP2 SWAP1 POP JUMP JUMPDEST PUSH2 0x30E DUP2 PUSH2 0x2FA JUMP JUMPDEST DUP3 MSTORE POP POP JUMP JUMPDEST PUSH0 PUSH1 0x20 DUP3 ADD SWAP1 POP PUSH2 0x327 PUSH0 DUP4 ADD DUP5 PUSH2 0x305 JUMP JUMPDEST SWAP3 SWAP2 POP POP JUMP JUMPDEST PUSH0 DUP2 MLOAD SWAP1 POP SWAP2 SWAP1 POP JUMP JUMPDEST PUSH0 DUP3 DUP3 MSTORE PUSH1 0x20 DUP3 ADD SWAP1 POP SWAP3 SWAP2 POP POP JUMP JUMPDEST DUP3 DUP2 DUP4 MCOPY PUSH0 DUP4 DUP4 ADD MSTORE POP POP POP JUMP JUMPDEST PUSH0 PUSH1 0x1F NOT PUSH1 0x1F DUP4 ADD AND SWAP1 POP SWAP2 SWAP1 POP JUMP JUMPDEST PUSH0 PUSH2 0x36F DUP3 PUSH2 0x32D JUMP JUMPDEST PUSH2 0x379 DUP2 DUP6 PUSH2 0x337 JUMP JUMPDEST SWAP4 POP PUSH2 0x389 DUP2 DUP6 PUSH1 0x20 DUP7 ADD PUSH2 0x347 JUMP JUMPDEST PUSH2 0x392 DUP2 PUSH2 0x355 JUMP JUMPDEST DUP5 ADD SWAP2 POP POP SWAP3 SWAP2 POP POP JUMP JUMPDEST PUSH0 PUSH1 0x20 DUP3 ADD SWAP1 POP DUP2 DUP2 SUB PUSH0 DUP4 ADD MSTORE PUSH2 0x3B5 DUP2 DUP5 PUSH2 0x365 JUMP JUMPDEST SWAP1 POP SWAP3 SWAP2 POP POP JUMP JUMPDEST PUSH0 DUP2 SWAP1 POP SWAP2 SWAP1 POP JUMP JUMPDEST PUSH2 0x3CF DUP2 PUSH2 0x3BD JUMP JUMPDEST DUP3 MSTORE POP POP JUMP JUMPDEST PUSH0 PUSH1 0x20 DUP3 ADD SWAP1 POP PUSH2 0x3E8 PUSH0 DUP4 ADD DUP5 PUSH2 0x3C6 JUMP JUMPDEST SWAP3 SWAP2 POP POP JUMP JUMPDEST PUSH32 0x566F74696E67206973206E6F7420616374697665000000000000000000000000 PUSH0 DUP3 ADD MSTORE POP JUMP JUMPDEST PUSH0 PUSH2 0x422 PUSH1 0x14 DUP4 PUSH2 0x337 JUMP JUMPDEST SWAP2 POP PUSH2 0x42D DUP3 PUSH2 0x3EE JUMP JUMPDEST PUSH1 0x20 DUP3 ADD SWAP1 POP SWAP2 SWAP1 POP JUMP JUMPDEST PUSH0 PUSH1 0x20 DUP3 ADD SWAP1 POP DUP2 DUP2 SUB PUSH0 DUP4 ADD MSTORE PUSH2 0x44F DUP2 PUSH2 0x416 JUMP JUMPDEST SWAP1 POP SWAP2 SWAP1 POP JUMP JUMPDEST PUSH32 0x4E487B7100000000000000000000000000000000000000000000000000000000 PUSH0 MSTORE PUSH1 0x11 PUSH1 0x4 MSTORE PUSH1 0x24 PUSH0 REVERT JUMPDEST PUSH0 PUSH2 0x48D DUP3 PUSH2 0x3BD JUMP JUMPDEST SWAP2 POP PUSH2 0x498 DUP4 PUSH2 0x3BD JUMP JUMPDEST SWAP3 POP DUP3 DUP3 ADD SWAP1 POP DUP1 DUP3 GT ISZERO PUSH2 0x4B0 JUMPI PUSH2 0x4AF PUSH2 0x456 JUMP JUMPDEST JUMPDEST SWAP3 SWAP2 POP POP JUMP INVALID LOG2 PUSH5 0x6970667358 0x22 SLT KECCAK256 0x21 BLOBBASEFEE CALLCODE PUSH19 0x7E345F145BBED368D3B05E0D8A90B8383B87BB MLOAD SWAP8 0xF9 0xA5 CALLDATASIZE PUSH32 0xF8A52C64736F6C634300081A0033000000000000000000000000000000000000 "
		},
		"gasEstimates": {
			"creation": {
				"codeDepositCost": "252000",
				"executionCost": "24558",
				"totalCost": "276558"
			},
			"external": {
				"bichikoVotes()": "2491",
				"chichikoVotes()": "2424",
				"getWinner()": "infinite",
				"toggleVoting()": "26569",
				"voteBichiko()": "infinite",
				"voteChichiko()": "infinite",
				"votingActive()": "2489"
			}
		},
		"methodIdentifiers": {
			"bichikoVotes()": "d10e0d90",
			"chichikoVotes()": "9ddfdf81",
			"getWinner()": "8e7ea5b2",
			"toggleVoting()": "aae3bd47",
			"voteBichiko()": "2bef70ca",
			"voteChichiko()": "cf567c8c",
			"votingActive()": "408e2727"
		}
	},
	"abi": [
		{
			"inputs": [],
			"stateMutability": "nonpayable",
			"type": "constructor"
		},
		{
			"inputs": [],
			"name": "bichikoVotes",
			"outputs": [
				{
					"internalType": "uint256",
					"name": "",
					"type": "uint256"
				}
			],
			"stateMutability": "view",
			"type": "function"
		},
		{
			"inputs": [],
			"name": "chichikoVotes",
			"outputs": [
				{
					"internalType": "uint256",
					"name": "",
					"type": "uint256"
				}
			],
			"stateMutability": "view",
			"type": "function"
		},
		{
			"inputs": [],
			"name": "getWinner",
			"outputs": [
				{
					"internalType": "string",
					"name": "",
					"type": "string"
				}
			],
			"stateMutability": "view",
			"type": "function"
		},
		{
			"inputs": [],
			"name": "toggleVoting",
			"outputs": [],
			"stateMutability": "nonpayable",
			"type": "function"
		},
		{
			"inputs": [],
			"name": "voteBichiko",
			"outputs": [],
			"stateMutability": "nonpayable",
			"type": "function"
		},
		{
			"inputs": [],
			"name": "voteChichiko",
			"outputs": [],
			"stateMutability": "nonpayable",
			"type": "function"
		},
		{
			"inputs": [],
			"name": "votingActive",
			"outputs": [
				{
					"internalType": "bool",
					"name": "",
					"type": "bool"
				}
			],
			"stateMutability": "view",
			"type": "function"
		}
	]
}